:1000000002002E75247A220000000000000000008B
:100020000000000205A80000000000020204758123
:1000300078120183E582600302009A780079007AE1
:10004000007B007C007D00EC4D601C88828983E48D
:1000500093A3A882A9838A828B83F0A3AA82AB830D
:100060001CBCFFE31D80E07582007583007C007D71
:1000700000EC4D600AE4F0A31CBCFFF51D80F27596
:1000800082007583007C007D00EC4D600AE4F0A3E3
:100090001CBCFFF51D80F21200031205B780FE4163
:1000A0004343454C200053544F50200049444C4595
:1000B00020004C5455524E2000525455524E2000B0
:1000C000474F20002A4E2F412A2000424C545552BF
:1000D0004E200042525455524E20004241434B2084
:1000E00000524947485420004C45465420002053B4
:1000F00068616B65206C6566742000205368616BD5
:10010000652072696768742000205368616B652000
:100110006261636B2000205368616B6520474F204C
:100120000042697473747265616D3A2025642564B8
:1001300025642564002564256425642564256420E0
:100140007C20005B464154414C4954595D0A313092
:100150000A000A310A002020202066726571206E94
:100160006F773A20256C750000000000920A063F68
:10017000DB0FC93F920A863F3C4E4F20464C4F4111
:10018000543E0075A7007597DE7597AD75FF8075B5
:10019000EF0675A71075C11075A70075A90075A9A0
:1001A00000E5A930E7FB75A90775A907E5A930E7C0
:1001B000FB759810758DEF858D8B53890F438920C2
:1001C000D28ED29943A60343A41075E10575E200CF
:1001D00075E340438E045389F0438902758C607542
:1001E0008A60D28C75C15C43C18075C800438E1093
:1001F00075CAF475CBF975CEFF75CFFFD2ADD2CAF3
:1002000075820022C0D075D000C2CFB2A0A2A0B328
:1002100092A1D0D032AA82438E407592D07593FFBE
:100220008592948593957591047B00C3EB9A501247
:10023000E59130E7FB53917F108D02800205250B7D
:1002400080E975910022AA82AB837C007D00C3EC1B
:100250009AED9B502B7E00BE0400501D7582FAC0A3
:1002600002C003C004C005C006120215D006D005A6
:10027000D004D003D0020E80DE0CBC00D10D80CEA5
:1002800022D2A5758228120215C2A522AA828AE06E
:10029000A2E792A1A2E692A2A2E592A3A2E492A46E
:1002A000C002120281758228120215D0028AE0A2D1
:1002B000E392A1A2E292A2A2E192A3A2E092A402FE
:1002C0000281D2A612028C900002020246C2A6123D
:1002D000028C900005020246C2A59000141202464C
:1002E0007582331202CD7582331202CD75823212BD
:1002F00002CD7582281202CD75820C1202CD758254
:10030000011202CD900014020246AA82AB83ACF027
:100310007402B526047DC080027D808D82C002C03B
:1003200003C0041202CD900005120246D004D0038F
:10033000D0027D007E00ED2AFFEE3BF88C018F821B
:10034000888389F01210B1FF60208F82C002C00341
:10035000C004C005C0061202C2D006D005D004D029
:1003600003D0020DBD00CF0E80CC3000248D028E54
:1003700003C3EA9410EB648094805015758220C00A
:1003800002C0031202C2D003D0020ABA00E30B80FB
:10039000E022AA82ABA775A71043A60175A28075BB
:1003A000A34485A2A485A3A5C29FD29A7C00C3ECD6
:1003B0009A5008109F0280FB0C80F3C29A8BA722F0
:1003C0008582C2C2C030C0FD22C2C030C0FD85C21D
:1003D0008222D2C1D2C5C2C4C2C030C0FDC2C522B1
:1003E000D2C4C2C0221203D27582A41203C0758285
:1003F000F01203C07582551203C01203E07582012A
:100400001203921203D27582A41203C07582FB12EA
:1004100003C07582001203C01203E075820112034B
:10042000921203D27582A41203C07582FA1203C01D
:100430001203E07582031203921203D27582A51291
:1004400003C07A00BA06005015EA2427F8C002C09B
:10045000001203C9E582D000D002F60A80E6C2C1CC
:100460001203E07582031203921203D27582A41262
:1004700003C07582F01203C07582AA1203C0120372
:10048000E07582011203921203D27582A41203C096
:100490007582401203C07582001203C0758200127B
:1004A00003C07582001203C07582001203C07582FA
:1004B000001203C07582001203C01203E0758201AE
:1004C0001203921203D27582A41203C075824012E5
:1004D00003C07582001203C07582001203C07582CA
:1004E000001203C07582001203C07582001203C09F
:1004F0007582001203C01203E0758201120392128A
:1005000003D27582A41203C07582401203C07582A3
:10051000001203C07582001203C07582001203C06E
:100520007582001203C01203E0758201020392AAD1
:1005300082AB83ACF0C002C003C0041203D2758248
:10054000A41203C07582001203C01203E075820377
:100550001203921203D27582A51203C0D004D003F5
:10056000D0027D00BD0600503AED2AFEE43BFF8C30
:1005700000C002C003C004C005C006C007C000120E
:1005800003C9E582D000D007D006D005D004D0033F
:10059000D00264172417F98E828F8388F0121544D5
:1005A0000D80C1C2C10203E0109802800975A72026
:1005B00085992475A70032E4F54BF54CC209E4F5A2
:1005C0004DF54EC20AC20B754FFF7550FFD2AFD228
:1005D000ACD2ADC2CA75CAFF75CBF9D2CAAECAAF2A
:1005E000CBE4FCFDC39EFEE49FFF74019CFCE49DF4
:1005F000FDEE2EF56AEF33F56BEC33F56CED33F56C
:100600006D906C0075F0DC74021212828582318567
:10061000833285F033F5347582C8120392D2011209
:1006200003E575826412039290003575F04012055F
:100630002FAC357D00EC2480F53FED34FFF540AE66
:10064000367F00EE2480F541EF34FFF5429000350F
:1006500075F04012052FAE357F00EE2480FEEF349A
:10066000FFFFEEC3953FF53BEF9540F53CAC367D83
:1006700000EC2480FCED34FFFDECC39541F53DED2D
:100680009542F53EE53775F004A4F54385F044E561
:100690003875F004A4F54585F046E53975F004A4F5
:1006A000F54785F048E53A139202E53AA2E1920354
:1006B000E53A30E20B74022543F543E43544F54452
:1006C000E53A30E3080543E4B543020544E53A3032
:1006D000E40B74022545F545E43546F546E53A3028
:1006E000E5080545E4B545020546E53A30E60B74F4
:1006F000022547F547E43548F548E53A30E708056F
:1007000047E4B547020548D204C20CC20DC20EC26E
:100710000FC205C206C207C208853B6A853C6B85CD
:100720003B82853C83121265AC82AD83853D6A8530
:100730003E6B853D82853E83C004C005121265AEC6
:1007400082AF83D005D004EE2CF582EF3DF5831205
:100750001595121340AC82AD83AEF0FFC004C00506
:10076000C006C00790999A75F019743E1211B3AC87
:1007700082AD83AEF0FFE58124FCF5818C828D8310
:100780008EF0EF12117F85824985834A7455B52416
:1007900010C20CD20DD20ED20FD20875245A020FFD
:1007A00015744CB52412D20CD20DD20ED20FD20732
:1007B000D20875245A020F157444B52410C20CD205
:1007C0000DD20ED20FD20675245A020F157452B5EF
:1007D0002412C20CD20DD20ED20FD207D208752429
:1007E0005A020F15C3E49549E46480854AF063F02A
:1007F0008095F050030208C8200249D20CD20DD2D5
:100800000ED20FD205D206D207D208749FC0E07470
:1008100000C0E07480C0E01212E9158115811581D5
:1008200030091C7408B54B06E4B54C028002800AFE
:10083000054BE4B54B09054C8005E4F54BF54CC27E
:1008400009020D813003057453B5246074A6C0E01D
:100850007400C0E07480C0E01212E91581158115A2
:100860008130091C7409B54B06E4B54C0280028046
:100870000A054BE4B54B09054C8005E4F54BF54CF6
:10088000C209300A1C7404B54D06E4B54E0280025C
:10089000800A054DE4B54D09054E8005E4F54DF59A
:1008A0004EC20A754FFF7550FF020D8174ACC0E057
:1008B0007400C0E07480C0E01212E9158115811542
:1008C00081D209D20A020D81D204853D82853E8300
:1008D00012159585825185835285F053F554853BD9
:1008E00082853C83121595AA82AB83ACF0FDC002D1
:1008F000C003C004C0058551828552838553F0E54D
:10090000541215A2AA82AB83ACF0FDE58124FCF55C
:10091000818A828B838CF0ED1216EAAA82AB83ACBB
:10092000F0FDC002C003C004C00590000075F034A3
:1009300074431211B3AA82AB83ACF0FDE58124FCB1
:10094000F58174DBC0E0740FC0E07449C0E074400E
:10095000C0E08A828B838CF0ED1215A2AA82AB8351
:10096000ACF0FDE58124FCF5818A828B838CF0ED6F
:1009700012117F121256AA82AB83756A02E4F56BDC
:10098000854982854A83C002C00312130AAC82AD36
:1009900083EC4D24FF920C756A02E4F56B85498265
:1009A000854A8312155DAC82AD83756A02E4F56BEE
:1009B0008C828D83C004C00512130AAE82AF83D02F
:1009C00005D004EE4F24FF920D756A02E4F56B8C9E
:1009D000828D8312155DAC82AD83756A02E4F56B7E
:1009E0008C828D83C004C00512130AAE82AF83D0FF
:1009F00005D004EE4F24FF920E756A02E4F56B8C6D
:100A0000828D8312155DAC82AD83756A02E4F56B4D
:100A10008C828D8312130AAC82AD83D003D002EC9A
:100A20004D24FF920FC3740A953DE46480853EF027
:100A300063F08095F04003020B36C3E53B94F6E586
:100A40003C6480947F5037C374149AE464808BF0C4
:100A500063F08095F05027C3EA9446EB648094805D
:100A6000501CD206D20874B2C0E07400C0E074809A
:100A7000C0E01212E9158115811581020D81C37440
:100A80000A953BE46480853CF063F08095F0503734
:100A9000C374149AE464808BF063F08095F050275F
:100AA000C3EA9446EB64809480501CD206D207744B
:100AB000B9C0E07400C0E07480C0E01212E9158192
:100AC00015811581020D81C3EA9446EB6480948000
:100AD000404CD205D206D207D20874C0C0E07400E0
:100AE000C0E07480C0E01212E915811581158130D3
:100AF0000922E54B454C600D7401B54B06E4B54C3D
:100B0000028002800A054BE4B54B09054C8005E4E0
:100B1000F54BF54CC209E4F54DF54E020D8174C458
:100B2000C0E07400C0E07480C0E01212E9158115C5
:100B3000811581020D81C3E53D94F6E53E64809404
:100B40007F4003020C62C3E53B94F6E53C6480946D
:100B50007F5039C374149AE464808BF063F08095FD
:100B6000F05029C3EA9446EB64809480501ED2066C
:100B7000D207D20874CBC0E07400C0E07480C0E03B
:100B80001212E9158115811581020D81C3740A9530
:100B90003BE46480853CF063F08095F05035C3748D
:100BA000149AE464808BF063F08095F05025C3EADA
:100BB0009446EB64809480501AD20574D3C0E074DC
:100BC00000C0E07480C0E01212E915811581158122
:100BD000020D81C374469AE464808BF063F08095C3
:100BE000F05067D20674DBC0E07400C0E07480C0CF
:100BF000E01212E91581158115813009277402B5BB
:100C00004B06E4B54C02800D7403B54B06E4B54CBD
:100C1000028002800A054BE4B54B09054C8005E4CF
:100C2000F54BF54CC209300A1C7402B54D06E4B50B
:100C30004E028002800A054DE4B54D09054E80053F
:100C4000E4F54DF54EC20A020D8174C4C0E0740093
:100C5000C0E07480C0E01212E9158115811581028F
:100C60000D81C3740A953BE46480853CF063F08099
:100C700095F05074C3EA9414EB648094805069D268
:100C800007D20874E1C0E07400C0E07480C0E012D4
:100C900012E91581158115813009277405B54B06B8
:100CA000E4B54C02800D7407B54B06E4B54C0280E8
:100CB00002800A054BE4B54B09054C8005E4F54B71
:100CC000F54CC209300A1C7401B54D06E4B54E025C
:100CD0008002800A054DE4B54D09054E8005E4F516
:100CE0004DF54EC20A020D81C3E53B94F6E53C6426
:100CF00080947F5077C3EA9414EB64809480506CA6
:100D0000D20774E8C0E07400C0E07480C0E0121242
:100D1000E91581158115813009277404B54B06E466
:100D2000B54C02800D7406B54B06E4B54C0280024A
:100D3000800A054BE4B54B09054C8005E4F54BF5FD
:100D40004CC209300A22E54D454E600D7403B54D85
:100D500006E4B54E028002800A054DE4B54D090552
:100D60004E8005E4F54DF54EC20A801574C4C0E00E
:100D70007400C0E07480C0E01212E915811581157D
:100D800081C3E4954FE464808550F063F08095F072
:100D9000500AD20CD20DD20ED20F8076C374969523
:100DA00047E464808548F063F08095F04008754F13
:100DB000FF7550FF805CC3E5439420E54464809454
:100DC000834008754F04E4F5508047C374C89543C9
:100DD000E464808544F063F08095F04008754F032B
:100DE000E4F550802DC3E5459420E5466480948366
:100DF0004008754F02E4F5508018C374C89545E467
:100E000064808546F063F08095F04006754F01E4FC
:100E1000F5507404B54F06E4B5500280057450B522
:100E20002410C205C206D207C208754F04E4F5506B
:100E3000805E7403B54F06E4B5500280057458B562
:100E40002410C205C206D207D208754F03E4F5503C
:100E5000803E7402B54F06E4B550028005744EB56D
:100E60002410C205D206C207C208754F02E4F5502D
:100E7000801E7401B54F06E4B550028005744FB56D
:100E8000240EC205C206C207D208754F01E4F55010
:100E90007405B54D06E4B54E0280028042D20CD2F4
:100EA0000DD20ED20F7443C0E07401C0E07480C054
:100EB000E01212E9158115811581300B10C205C2AF
:100EC00006C207D208758205120392800EC205D2AF
:100ED00006C207C208758205120392B20B803474F1
:100EE0000AB54B06E4B54C0280028012D20CD20D3A
:100EF000D20ED20FC205C206D207C20880157452A4
:100F0000C0E07401C0E07480C0E01212E9158115E0
:100F1000811581D2ADC2ACA20492AD75820A1203D2
:100F200092A20C92AD75820A120392A20D92AD7537
:100F3000820A120392A20E92AD75820A120392A245
:100F40000F92AD75820A120392A20592AD75820AC4
:100F5000120392A20692AD75820A120392A2079220
:100F6000AD75820A120392A20892AD75820A12032D
:100F700092C2AD758208120392D2AC30A503021062
:100F80001374322531F531E43532F532E43533F579
:100F900033E43534F534E5312531F56AE53233F59E
:100FA0006BE53333F56CE53433F56D906C0075F01B
:100FB000DC74021210CD85822D85832E85F02FF5ED
:100FC00030C2CAE4C3952DFEE4952EFF7401952F1F
:100FD000E495308ECA8FCBD2CAAACAABCBE4FCFD53
:100FE000C39AFAE49BFB74019CFCE49DFDEA2AF59C
:100FF0006AEB33F56BEC33F56CED33F56D906C000B
:1010000075F0DC740212128285823185833285F09C
:1010100033F53430B00302064DE53124CEF531E529
:101020003234FFF532E53334FFF533E53434FFF580
:1010300034E5312531F56AE53233F56BE53333F5C7
:101040006CE53433F56D906C0075F0DC74021210B1
:10105000CD85822D85832E85F02FF530C2CAE4C35D
:10106000952DFAE4952EFB7401952FE495308ACAEC
:101070008BCBD2CAAACAABCBE4FCFDC39AFAE49BE1
:10108000FB74019CFCE49DFDEA2AF56AEB33F56BE9
:10109000EC33F56CED33F56D906C0075F0DC74029B
:1010A00012128285823185833285F033F53402064F
:1010B0004D20F71430F6148883A88220F507E6A89F
:1010C0008375830022E280F7E49322E022FB7A20FA
:1010D000E4FCFDFEFFE5822582F582E58333F5839E
:1010E000E5F033F5F0EB33FB4017DAE98042E582B7
:1010F0002582F582E58333F583E5F033F5F0EB33B4
:10110000FBEC33FCED33FDEE33FEEF33FFEC956A81
:10111000ED956BEE956CEF956D4013EC956AFCEDDB
:10112000956BFDEE956CFEEF956DFF438201DABE87
:10113000EB22E56A456B60467A01E56A25E0F56ACF
:10114000E56B334012F56BE582956AE583956B405C
:10115000030A80E6C3E56B13F56BE56A13F56AC312
:10116000E582956AF5F0E583956B4005F58385F09A
:1011700082C3E56B13F56BE56A13F56ADAE12212B7
:101180001A6E700AE582458345F0700122E430D181
:1011900012F4700BE5F0F47006E58330E70122905D
:1011A000800022700AE5F07006E58320E7012290B6
:1011B0007FFF22121B4BBC0003021AEAEF60FA30D9
:1011C000D502B2D1E583B4FF03021B00E582B4FF70
:1011D00003021B00258340072482400B021AEA24E5
:1011E00083145003021B00F582EA8DF0A4A8F0EAF4
:1011F0008EF0A428F8E435F0F9EB8DF0A428E93559
:10120000F0F9E433CA8FF0A429F9EA35F0FAEBF8E3
:101210008EF0A429F9EA35F0FAE433FBEC8DF0A462
:1012200029F9EA35F0FAE43BFBE88FF0A42AFAEB5F
:1012300035F0FBE433CCFD8EF0A42AFAEB35F0FB5D
:10124000E43CFCED8FF0A42BFBEC35F0FC20E70335
:10125000121B18021AC9E58330E709F4F583E58209
:10126000F4F582A322E582856AF0A4C582C0F085E8
:101270006BF0A4D0F025F0C583856AF0A42583F532
:101280008322FBC2D530E715D2D5E4C39582F5821F
:10129000E49583F583E495F0F5F0E49BFBE56D3090
:1012A000E717B2D5E4C3956AF56AE4956BF56BE48C
:1012B000956CF56CE4956DF56DEB1210CD30D51392
:1012C000FBE4C39582F582E49583F583E495F0F51C
:1012D000F0E49B2202219985826385836485F06511
:1012E000850B669012D4021C02C008858108E508AF
:1012F00024FBF566E50824FBF88663088664088607
:10130000659012D4121C02D00822C2D5E58330E7C2
:101310000DD2D5E4C39582F582E49583F583E56B20
:1013200030E70BE4C3956AF56AE4956BF56B12112F
:101330003230D50BE4C39582F582E49583F58322A0
:10134000AA82AB83ACF0FDEA4B4C8DF0C2F745F0BE
:1013500070088A828B838CF0ED22C002C003C00427
:10136000C005E4C0E0C0E07480C0E0743FC0E08A23
:10137000828B838CF0ED1221AEAE82E58124FCF5E8
:1013800081D005D004D003D002EE60099000007532
:10139000F080743F22C002C003C004C005E4C0E076
:1013A000C0E0C0E0C0E08A828B838CF0ED1221BFE8
:1013B000AE82E58124FCF581D005D004D003D002B3
:1013C000EE600D750921E4F50A900000E4F5F022C5
:1013D000756A10756B00756C408A828B838CF0ED9A
:1013E00012224885820C85830D85F00EF50FC00C06
:1013F000C00DC00EC00F9014BA75F017743F1211D3
:10140000B3AE82AF83A8F0F9E58124FCF58174A81E
:10141000C0E074A9C0E074D5C0E0743EC0E08E8224
:101420008F8388F0E91221EFAE82AF83A8F0F9E54F
:101430008124FCF581C006C007C000C001C006C001
:1014400007C000C001850C82850D83850EF0E50F75
:101450001215A2AA82AB83ACF0FDE58124FCF581D4
:10146000D001D000D007D006C002C003C004C00520
:101470008E828F8388F0E91221EFAE82AF83A8F0CD
:10148000F9E58124FCF581756AFE756BFF8E828F0C
:101490008388F0E9C006C007C000C0011222E185C0
:1014A000821285831385F014F515850C82850D83D2
:1014B000850EF0E50F1215A2AA82AB83ACF0FDE514
:1014C0008124FCF581C002C003C004C005851282DE
:1014D0008513838514F0E5151221EFAE82AF83A842
:1014E000F0F9E58124FCF581E51030E028C006C064
:1014F00007C000C0019004F375F035743F1211B3BA
:10150000AE82AF83A8F0F9E58124FCF5810510E4F3
:10151000B510020511756A02E4F56B85108285111C
:1015200083C006C007C000C00112155D85826A85B0
:10153000836BD001D000D007D0068E828F8388F0D5
:10154000E90222E120F71030F6118883A88220F505
:1015500007F6A88375830022F280F7F022C2D5E552
:101560008330E70DD2D5E4C39582F582E49583F507
:1015700083E56B30E70DB2D5E4C3956AF56AE4956F
:101580006BF56B1216C130D50BE4C39582F582E47E
:101590009583F58322AC83AB827A007900748E0246
:1015A0002384121B4B30D502B2D1BF0009BC00030B
:1015B000021B0D021B00BC0003021AEAE583B4FF04
:1015C0000BE582B4FF03021B0D021AEAE582B4FFA9
:1015D00003021B00C395835007247F400B021AEAC5
:1015E0002480145003021B00C0E0E4CCCBCAF98D68
:1015F0006A8E6B8F6CEF54F0C4F56D758306856D44
:10160000F0EB84F582E9C4F9EAC4FAEBC4FBEC54CC
:101610000FC47803D6FC18EBD6FB18EAD6FA8582FD
:10162000F0EDA4A8F0FD8582F0EEA428FEE435F0EC
:10163000F88582F0EFA428FFE435F0F8E99DF9EA97
:101640009EFAEB9FFBEC98FCAD6AAE6BAF6C30E79B
:10165000101582E92DF9EA3EFAEB3FFBE43CFC80F1
:10166000EDC082D58398C3E933F9EA33FAEB33FB53
:10167000EC33FCC3E99DEA9EEB9FEC9400B3E413CA
:10168000F9D002D0E0C44AFAD003D0E0C44BFBD07A
:1016900004D0E0F5F0540FC44CFCD082158230F435
:1016A0000FD3EC13FCEB13FBEA13FAE913F90582F1
:1016B000E930E70A74012AFAE43BFBE43CFC021A35
:1016C000E17A10E4FBFCE58225E0F582E58333F561
:1016D00083EB33FBEC33FCEB956AF5F0EC956B4058
:1016E00006FCABF0438201DADD2285825585835604
:1016F00085F057F558E4F561F56285558285568386
:101700008557F0E5581223A885825985835A85F0BC
:101710005BF55CE4C0E0C0E07480C0E0743FC0E012
:10172000855982855A83855BF0E55C1223ABAC82D8
:10173000E58124FCF581EC602AC059C05AC05BC029
:101740005C90000075F080743F1215A28582598567
:10175000835A85F05BF55CE58124FCF581756102B7
:10176000E4F56274A3C0E07430C0E07489C0E07432
:101770003EC0E0855982855A83855BF0E55C122383
:10178000ABAC82E58124FCF581EC7003021870C0DB
:1017900059C05AC05BC05C9067AF75F03B743F1294
:1017A00011B3AC82AD83AEF0FFE58124FCF581E49A
:1017B000C0E0C0E0C0E0743FC0E08C828D838EF05A
:1017C000EF1223DBAC82AD83AEF0FFE58124FCF5A4
:1017D00081E4C0E0C0E0C0E0743FC0E08C828D8353
:1017E0008EF0EF1223DBAC82AD83AEF0FFE58124F7
:1017F000FCF581C059C05AC05BC05C8C828D838E61
:10180000F0EF1221EF85826385836485F065F566CC
:10181000E58124FCF58174D7C0E074B3C0E074DDC9
:10182000C0E0743FC0E0855982855A83855BF0E54E
:101830005C1221EFAC82AD83AEF0FFE58124FCF5B4
:1018400081C004C005C006C00785638285648385A6
:1018500065F0E5661215A285825985835A85F05B8D
:10186000F55CE58124FCF5810561E4B56102056262
:10187000855982855A83855BF0E55C1223A8AC828A
:10188000AD83AEF0FFE4C0E0C0E07480C0E0743926
:10189000C0E08C828D838EF0EF1221BFAC82E58197
:1018A00024FCF581EC600BAC59AD5AAE5BAF5C0229
:1018B00019D3C059C05AC05BC05C855982855A8310
:1018C000855BF0E55C1211B385825D85835E85F0F2
:1018D0005FF560E58124FCF581C05DC05EC05FC03E
:1018E0006090869175F05074BD1211B3AA82AB83DB
:1018F000A8F0F9E58124FCF58174F6C0E07410C00D
:10190000E074F1C0E074BEC0E08A828B8388F0E9A5
:101910001221EFAA82AB83A8F0F9E58124FCF581BE
:10192000C05DC05EC05FC0608A828B8388F0E912B0
:1019300011B3AA82AB83A8F0F9E58124FCF581C03C
:1019400059C05AC05BC05C8A828B8388F0E912114F
:10195000B385826385836485F065F566E58124FC43
:10196000F58174D3C0E074CCC0E074B4C0E0743FBF
:10197000C0E0855D82855E83855FF0E5601221EFC2
:10198000AA82AB83A8F0F9E58124FCF581C002C0EE
:1019900003C000C0018563828564838565F0E566C8
:1019A0001215A2AA82AB83A8F0F9E58124FCF58187
:1019B000C002C003C000C001855982855A83855B7F
:1019C000F0E55C1221EFAC82AD83AEF0FFE581243F
:1019D000FCF581C374019561E464808562F063F075
:1019E0008095F05004EFB2E7FFAA61E562CA25E0F6
:1019F000CA33CA25E0CA33FBEA2468F582EB340116
:101A0000F583E493FAA3E493FBA3E493F8A3E493AC
:101A1000F9C002C003C000C0018C828D838EF0EF3C
:101A20001221EFAC82AD83AEF0FFE58124FCF5819D
:101A3000C004C005C006C007E4C0E0C0E0C0E0C00C
:101A4000E08555828556838557F0E5581221BFAA57
:101A500082E58124FCF581D007D006D005D004EAC8
:101A60006004EFB2E7FF8C828D838EF0EF221223A9
:101A7000E6C3749E9582403979001223F830D1264E
:101A8000E9F42401F582EAF43400F583EBF4340040
:101A9000F5F0ECF43400700AE582458345F07001FE
:101AA00022E430E70F22EC20E71489828A838BF04E
:101AB0002230D10AE4F582F583F5F074802274FFB8
:101AC000F582F583F5F0747F22B98003EA13B34001
:101AD00010EA2401FAE43BFBE43CFC50047C800562
:101AE00082BC000EBB000BBA0008E4F5F0F583F5EC
:101AF0008222A2D1E582138CF092F78B838A822214
:101B0000E4F583F58275F080F4A2D11322E4F58325
:101B1000F58275F0C0747F227804EC7011E58224A0
:101B2000F8500AF582E4C9CACBFCD8EF22EC782041
:101B3000058220E713D5820122C3E933F9EA33FA9B
:101B4000EB33FBEC33FCD8EA158222AA82AB83A2EA
:101B5000F73392D16002D2F7F582ACF0E58124F937
:101B6000F8E6FD08E6FE0886F008E6A2F73392D50F
:101B70006002D2F7F583AFF022AA82748AC0E074C3
:101B80001BC0E0C055C0568A8222055CE4B55C02E9
:101B9000055D22AA8274302AFA24C6500A74072AE4
:101BA000FA3010034302208A82021B79E582FAC4CC
:101BB000540FF582C002121B93D002740F5AF582A3
:101BC000021B93AA57AB58AC59AD5AAE5B75622055
:101BD000EE2EFEED235401FF4206EA2AFAEB33FB18
:101BE000EC33FCED33FDC3EE955E4008EEC3955E2D
:101BF000FE430201D562D98A578B588C598D5A8E73
:101C00005B22858255858356E4F55CF55DAA63AB5E
:101C100064AC658A828B838CF01210B1FD74012A4A
:101C2000F563E43BF5648C65EDFA7003022192BA2A
:101C30002502800302218AC214C215C216C217C22D
:101C400018C219C21AC21BC211C212C213755E0099
:101C5000755F007560FFAB63AC64AD658B828C8390
:101C60008DF01210B1FAA3AB82AC838B638C648DC0
:101C700065BA25078A82121B7980928A06BE3000D7
:101C8000402E8A06EE24C6402774FFB56013E55F38
:101C900075F00AA4FEEA24D02EF55F70BFD215803D
:101CA000BBE56075F00AA4FEEA24D02EF56080AC96
:101CB000BA2E0A74FFB560A4756000809F8A06BEC4
:101CC0006100400E8A06EE248540075302DFD210E1
:101CD0008002C210BA20028075BA2303021D5DBAC9
:101CE0002A03021D62BA2B02805FBA2D028055BA08
:101CF0004202805FBA4303021DA7BA4403021EE2F8
:101D0000BA4503021EFCBA4603021EF8BA47030294
:101D10001F00BA4903021EE2BA4C02803BBA4E03CE
:101D2000021F04BA4F03021EE9BA5003021E7BBA17
:101D30005303021DCBBA5503021EEEBA5803021E0E
:101D4000F3021F2ED214021C5CD216021C5CD217A6
:101D5000021C5CD219021C5CD21A021C5CD21B024F
:101D60001C5C74FFB5602030190BE56614F88866BA
:101D7000865F021C5CE56624FEF888668606088697
:101D800007188E5F021C5C30190BE56614F8886634
:101D90008660021C5CE56624FEF888668606088676
:101DA00007188E60021C5C30190AE56614F8886614
:101DB0008602800FE56624FEF8886686030886049E
:101DC000188B028A82121B79021F33E56624FDF804
:101DD0008866860308860408860518188B578C5871
:101DE0008D598B828C838DF012243BAB82AC838B1C
:101DF0006174FFB5600385616020141DC3E56195C2
:101E00005F5016E55FC39561F55FAB5F155FEB60F3
:101E100008758220121B7980F18557828558838549
:101E200059F01210B1FBFA6029AB601560C3E4648D
:101E3000808BF063F08095F050188A82121B79AB8A
:101E400057AC58AD590BBB00010C8B578C588D59B2
:101E500080C7201403021F33C3E561955F4003026E
:101E60001F33E55FC39561F55FAB5F155FEB7003F3
:101E7000021F33758220121B7980EEE56624FDF87F
:101E80008866860308860408860518188B578C58C0
:101E90008D59E559FB30E7047A438013EB546060B9
:101EA000047A50800AEB30E6047A4980027A588A34
:101EB00082C002121B7975823A121B797582301228
:101EC0001B79758278121B79D002BA4902800BBA4D
:101ED00050028006855882121BAC855782121BACBB
:101EE0008051D218755E0A804A755E088045755E1D
:101EF0000A8040755E10803BD2118037D212803349
:101F0000D213802FE56624FDF888668603088604D0
:101F100008860518188B578C588D598B828C838DA9
:101F2000F0E55C121544A3E55D12154480058A8234
:101F3000121B7920110620120330135AE56624FC87
:101F4000F888668603088604088605088606181839
:101F5000188B578C588D598E5A755778755801754E
:101F6000598085576785586885596974012567FECA
:101F7000E43568FFAB698E578F588B59856782852A
:101F800068838569F01210B1FBFA7003021C0D8A98
:101F900082121B7980CCE55E7003021C0D7B1B3026
:101FA000192BE56614F88866E6FC3395E0FDFEFF24
:101FB0008C578D588E598F5A20185EAC577D007EF5
:101FC000007F008C578D588E598F5A804C301A1FC5
:101FD000E56624FCF88866860408860508860608F7
:101FE00086071818188C578D588E598F5A802AE5F5
:101FF0006624FEF88866860408860518ED3395E0A9
:10200000FEFF8C578D588E598F5A20180CAC57AD47
:10201000587E007F008E598F5A301B43E557455834
:102020004559455A60397408B55E0C758230C00355
:10203000121B79D00380287410B55E23758230C0DE
:1020400003121B79D00330100C758278C003121B69
:1020500079D003800A758258C003121B79D00330EF
:102060001825AC57AD58AE59E55AFF30E717C3E411
:102070009CFCE49DFDE49EFEE49FFF8C578D588EF2
:10208000598F5A8002C218756100D21C8B00755B93
:1020900000C000121BC3D000201C0DE55BC4FCE691
:1020A000FD4CF61888038002A65B0561B21CE5575B
:1020B00045584559455A70D68803E55F7003755FEA
:1020C0000120151A201417E56104FCC3955F500E1A
:1020D000758220C003121B79D003155F80E9301888
:1020E0000E75822DC003121B79D003155F8024E585
:1020F00061602030160E75822BC003121B79D0034D
:10210000155F800F30170C758220C003121B79D029
:1021100003155F20141EAC5F155FC3E5619C50275B
:102120003015047C3080027C208C82C003121B7925
:10213000D00380E2C3E561955F5009E55FC3956117
:10214000F55F8003755F008B00AB611561EB60226A
:10215000B21C201C0A08E6C4540FFB8B5B80078668
:1021600003740F5BF55B855B82C000121B93D0008C
:1021700080D7201403021C0DAB5F155FEB700302C8
:102180001C0D758220121B7980EE8A82121B790247
:102190001C0D855C82855D8322AA82BA0A0810998B
:1021A0000280FB75990D10990280FB8A9922FFA885
:1021B000811818122481122463E96401F58222FF38
:1021C000A8811818122481D2D133E6400730E70BDA
:1021D0007582002220E70675820122C2D112246393
:1021E000E97003F5822220D101B3E433F582221293
:1021F0001B4B7900E583B58202800D50031224AC9D
:10220000E583C395821223F8E5D0C465D020E11799
:10221000EA2DFAEB3EFBEC3FFC500974011223F867
:10222000EC4480FC021AC9C3EA9DFAEB9EFBEC9FCA
:10223000FC500FC3E499F9E49AFAE49BFBE49CFC9C
:10224000B2D1121B18021AC9AA82AB83ACF0FD8A64
:102250006D8B6E8C6F8D70856D75856E76856F77E5
:10226000857078AE77E578A2E7CE33CE33CE5401D1
:1022700030E00244FE3395E08E71E4F572F573F5BB
:1022800074E5712482F571E57234FFF572E57334FB
:10229000FFF573E57434FFF574AC6AAD6BAA6CAEF0
:1022A00071AF728C828D838AF0EE121544A3EF1207
:1022B0001544AA75AB76747F5577FC74805578FD0C
:1022C0008A6D8B6E8C6F8D70743F4570FD8A6D8B3F
:1022D0006E8C6F8D70856D82856E83856FF0E57075
:1022E00022AA82AB83ACF0FD8A6C8B6D8C6E8D6FF5
:1022F000AA6EE56FA2E7CA33CA33CA540130E002BE
:1023000044FE3395E08A7075710075720075730034
:10231000AE6AE56BFF3395E0FAFBEE2570F570EFE2
:102320003571F571EA3572F572EB3573F573AA7094
:102330007B008A76EB5401A2E0C57613C57613C5FF
:1023400076F577757500757400AE6CAF6D747F555A
:102350006EFA7480556FFBE5744206E5754207E539
:10236000764202E57742038E6C8F6D8A6E8B6F85A5
:102370006C82856D83856EF0E56F22FCABF0AA83DD
:10238000A982749EF582C2D1EC30E716D2D1E9F46D
:102390002401F9EAF43400FAEBF43400FBECF434F1
:1023A00000FC121B18021AC9C2E722FFA8811818E4
:1023B000122481D2D133E6400730E70B7582012227
:1023C00020E70675820022C2D1122463E97003F56A
:1023D000822230D101B3E433F58222A8811818C6D5
:1023E000B2E7C60221EFAA82AB83A2F73392D16093
:1023F00002D2F7F582ACF0226040F82582500274D8
:10240000FFF582E824F8501ECCCBCAF9E4CC24F8BE
:102410005014CBCAF9E4CB24F8500BCAF9E4CA240F
:10242000F8500379002224086010F8C3EC13FCEB89
:1024300013FBEA13FAE913F9D8F122AA82AB83ACB1
:10244000F07D007E008A828B838CF01210B1FFA396
:10245000AA82AB83EF60070DBD00EA0E80E78D8294
:102460008E83227901AA82E68F82B5821318E6B59F
:10247000F00E18E6B5830918E68A82B58202790063
:1024800022B4800FE5F0700AE5837006E5827002E1
:102490007F00EFB6801518B6001018B6000B18B6FE
:1024A000000608080876002208080822E582C5838D
:1024B000F582A2D133A2D592D11392D5ECCFFCEB09
:1024C000CEFBEACDFA220000000000000000000070
:00000001FF
